:020000041004E6
:1000000000000120F19B0410558304105D4704108B
:10001000AA5555AA45554C420000000000000000BA
:10002000000000000000000000000000D1280510C2
:1000300000000000000000000B8804101D430510A4
:10004000731F0410EF9B04103F8704105F470410D8
:1000500061470410E5260510F5260510F726051062
:10006000635005102D5204101D470510899C041083
:10007000B10C04103D87041061500510C51F041019
:10008000C91F0410F51D04105B1004105510041056
:1000900057100410ED9B04102D7B04105F1004100A
:1000A0005D10041059100410000000000000000052
:1000B0000000000000000000000000000000000040
:1000C0000448854600F066FD004800475D6B05105A
:1000D000C046C0460000012030B50B460146002056
:1000E0002022012409E00D46D5409D4205D31D463E
:1000F0009540491B2546954040191546521E002D36
:10010000F1DC30BD70B500242546002801DA012459
:100110004042002901DA01254942FFF7DDFFAC42E8
:1001200000D04042002C00D0494270BDF0B51FB451
:100130000646002082B005464024019100901BE055
:10014000019922460F46304600F0ECFB049A059BCD
:10015000801A994110D310461946224600F0D2FB6E
:10016000361A8F410197224601200021009F00F09E
:10017000C9FB38184D4100902046641E0028DFDC82
:10018000019B00982946324607B0F0BDF0B51FB478
:1001900086B000200090019002900698069980B2E7
:1001A00004900798090C02040014114307900027DB
:1001B000089D099806913E463C4603900398A9B2D3
:1001C0000204000C039004982D0C154348430021B1
:1001D000224600F097FBC719714110340E46402C9F
:1001E000ECDB3846029A00F08DFB009A019B8018E8
:1001F0000090594102980191103002904028CCDBC8
:1002000000980BB0F0BD03460B439B0703D009E0F9
:1002100008C9121F08C0042AFAD203E00B78037041
:10022000401C491C521EF9D27047D2B201E0027044
:10023000401C491EFBD270470022F6E710B513465A
:100240000A4604461946FFF7F0FF204610BDF8B5F0
:1002500002464A40D40F42004B0052085B089A42C3
:1002600002D20246084611464A0023D0C30D4A0076
:10027000DDB2120EAD1A202D35DA49020126490AE7
:10028000F6058A19002C00D0524220214F1B11463E
:10029000B9402A411018C20D9A4221D0002C17D023
:1002A000012D08DCDA05801AD20F8019D207DBB2E3
:1002B00000F064FBF8BDDA05801A012340001B063C
:1002C000C01880185A428018CA0F1043490007E02E
:1002D0004908C2071143DA05801A801940088018BE
:1002E00000F044FBF8BD61000122511A001BF7E742
:1002F0000122D2075140AAE70122D2075040A6E7C7
:10030000024670B54A40D30FDB0740002DD04A00AB
:100310002AD0010E140E000212020919400A520AD4
:100320008418E50104465443000A120A2E0450437F
:10033000A4194219200CC543AA18120C0125AD03BB
:10034000521C521912047F39240400D0521C10434D
:1003500001D44000491EC2B20C06C0092018401C3E
:100360004008802A02D003E0002070BD4008400011
:10037000002900DA0020184370BD70B502464A40DB
:10038000D50F40004A00ED0740085208002814D05D
:10039000002A12D0C40DD30D41020120C005520223
:1003A000490A520AE41A091812187D34914201D3FD
:1003B000641C00E04900002C01DA002070BD00231D
:1003C000914201D3891A0343400849000028F7D11C
:1003D00000290AD0914202D10121C90705E09142CA
:1003E00001D2012101E00121C943E005C0184019F3
:1003F00000F0BCFA70BD0000F0B507460846584052
:1004000087B0C00F049048000E46590040084908C4
:10041000BC1A884105D2384631461E4617460B465F
:1004200002465800400810434DD0300D039040055F
:100430005900400D490D0590401A0290402873DA8A
:1004400018030121000B090508430190049800924C
:10045000002806D01146019A49420020904100919F
:100460000190029840210A1A0199009800F04AFA76
:1004700005460C466B4607CB00F065FAC019714182
:10048000039A0E0D0023D71756401A467A4016439A
:1004900044D0049A002A2DD0029A012A039A15DC2E
:1004A0001205C01A914101263605001C7141D20F78
:1004B000059ED2070093019202962A46234600F039
:1004C000A3FA07B0F0BD38463146FAE71605234ACD
:1004D0000F46B218C01AB74101210905001C4F414F
:1004E00000187F41114618187941E20F10436D1929
:1004F000644113E0E2076D0815436408C207144322
:10050000039A01261205C01A91413605001C71415B
:10051000CE07400830434908C01851412A462346B7
:1005200000F065FACDE7FFE7049801224000C1170B
:10053000121A00238B4104983146C417381AA1417E
:10054000EEE730B40124E407634030BC54E730B434
:100550000124E407614030BC4EE700000000E0FFEA
:10056000F0B51FB488B00B99099800244840099948
:10057000C00F490049080991C0070B990090490034
:1005800049080B9109990898A64608431CD00B9975
:100590000A98084318D0099801244000420D4800E9
:1005A000410D099824050003000B204309900B9886
:1005B0000003000B20430B9050181C4940180022E8
:1005C00001901446104605E0002001460DB0F0BD34
:1005D000032801DA034600E003239C46C11A0AAE51
:1005E0000AE05F0008ADED5B4F00F75B7D4300273D
:1005F000AA187C41491C5B1E6145F2DD410004AB39
:100600005A522104120C0A43240C401C0828DFDB38
:10061000019802900099704601910090059B049A00
:100620000799069800F0F0F9D0E700000DFCFFFFF5
:10063000F0B50C465C4085B0E40FE40703944C0031
:10064000002664085900944649080246029622434F
:1006500021D062460A431ED06200570D4A000E03A5
:100660002303550D012402462C492405781B1B0B3E
:10067000360B401823432643614600901C46501A0F
:10068000B44103D30098401C009002E092180098F7
:100690005B41002803DA0020014605B0F0BD0020D0
:1006A000012109050746864611E064461D46141BD4
:1006B000B54106D36546521BB341744607430C430C
:1006C000A646CD0740084908284392185B410546D5
:1006D0000D43EAD11046184313D0604619465040E6
:1006E0007140084306D06046101AB34106D2012279
:1006F000002306E000220123DB0702E00122D243AF
:100700005310009874460105381C6141029C039DFA
:100710000019694100F06BF9BFE70000FD0300001C
:10072000C217C10F504010B54018CA0796230021C8
:1007300000F024F910BD10B500229623114600F0F8
:100740001DF910BD0EB5C217C10F5040CA074018A1
:100750000021054B0293019200910A460B4600F0DE
:1007600053F903B000BD0000330400000EB5054985
:100770000291002100910A460B46019100F044F9D4
:1007800003B000BD33040000C20F4100400201234A
:10079000400ADB05D207090EC0187F2901DA0020C4
:1007A0007047962903DC9623591AC84001E0963910
:1007B0008840002AF4D040427047410040020122A4
:1007C000400AD205090E80187F2901DA00207047FF
:1007D000962903DC9622511AC84070479639884002
:1007E0007047000070B5CD0F4A0009030123090BC3
:1007F0001B0519430B4BED070024520D9A4201DAF9
:10080000002070BD074B34339A4203DC9A1A00F083
:1008100089F802E00449511888402C43F1D0404245
:1008200070BD0000FF030000CDFBFFFF4A0009037D
:100830000123090B1B051943094B10B5520D9A42B0
:1008400001DA002010BD064B34339A4203DC9A1AB9
:1008500000F068F810BD03495118884010BD000031
:10086000FF030000CDFBFFFFC20FD207400040088E
:100870000BD0C10D0723DB01C91840020905400A4E
:100880001143C208400711437047002001467047DA
:1008900010B5002904DB0124E40740428C412146C5
:1008A000002B04DB1C460123DB075242A341994283
:1008B00000D1904210BD0000CB0FDB07490010B5FE
:1008C000490802460A4307D00A0D07240903E40138
:1008D000090B121B002A01DC002010BDC900440FC7
:1008E0000C43C100E018D205801800F03FF810BD9D
:1008F0000122D207002800DB101A002900DB511A60
:100900008142704710B5202A04DB0146203A91400D
:10091000002010BD914020239C1A0346E340194358
:10092000904010BD10B5202A04DB0846203AD04084
:10093000002110BD0B46D340D0402024A21A914084
:100940000843194610BD10B5202A06DBCB17084610
:10095000203A1041C1170B4306E00B461341D0402B
:100960002024A21A91400843194610BD002904DA38
:10097000401C490001D140084000704770B4002479
:10098000050C05D11024000402D1002921D0112426
:10099000050E01D100020834050F01D10001241D0C
:1009A000850F01D18000A41C002801DB4000641CDD
:1009B000002908D020252E1B0D46F540A14000D06F
:1009C00001212943084301061B1B000ADB1D02D538
:1009D000002070BC7047DB05181880180029F8DA71
:1009E000401C4900F5D170BC40084000704710B56C
:1009F000002B08DA0024401C614192185B411A4325
:100A000001D14008400010BDF0B51FB482B00546CA
:100A10000C0003D0084614F047FD02E014F044FD3A
:100A200020300246009021462846FFF76BFF049BCA
:100A3000059A04460F4618431143084314D018463C
:100A400010431BD0009840210A1A18460599FFF759
:100A500069FF05460E46009A05990498FFF752FF74
:100A6000084305D0012004E02046394607B0F0BD18
:100A70000020C11705430E432C43374300990E98BD
:100A80006305401A7905E40A00220C43FD0A0A3086
:100A900002D500200146E9E70105101969410C9CC7
:100AA0000D9D00196941FFF7A2FFDFE770B54B000C
:100AB0005B0803430BD04B005C0D002633466542B8
:100AC000B341D417AD1AA34102DB0020014670BD2B
:100AD00012053018514170BDF8B505464800400870
:100AE0000C46284304D06000184A400D904201DDB6
:100AF0002846F8BD15493539884210DC88420BDBA1
:100B0000290D200308432903014305D0E00F1049B4
:100B1000C00741180020F8BD00200146F8BD161A94
:100B20004020821B28462146FFF7ECFE0746009135
:100B3000284621463246FFF7F5FE3A46009BFFF76E
:100B400056FF3246FFF7DEFEF8BD0000330400001A
:100B50000000F03F4A0009030123090B1B0519435C
:100B60000A4B10B5520D9A4202DA0020014610BD20
:100B7000064B34339A4203DC9A1AFFF7D3FE10BDBA
:100B8000034BD218FFF7BEFE10BD0000FF030000AC
:100B9000CDFBFFFF064C0125064E05E0E36807CCC0
:100BA0002B430C3C98471034B442F7D3FFF78CFA30
:100BB0000491051034910510FEB500231A461B1A46
:100BC0008A4103DB0020014603B0F0BD4A000D035B
:100BD00001212D0B0905520D0D43D10702D100183B
:100BE0006D41521E5110FF31FF3101310027044683
:100BF0003E46384600970191024601210020090532
:100C0000FFF790FEC3197141F818324684468E46AC
:100C10004A4161462846611A904104D36046241A2D
:100C2000954176461F46241900986D41401C00905E
:100C30003428E1DDF91930467041091BA84103D27F
:100C40000022D243134601E0002213460198010519
:100C5000381C7141FFF7CBFEB6E770B58C180578EC
:100C6000401C6B075B0F01D10378401C2A1106D191
:100C70000278401C03E006780E70401C491C5B1E85
:100C8000F9D12B0705D40023521E0DD40B70491C3B
:100C9000FAE70378401CCB1A921C03E01D780D7014
:100CA000491C5B1C521EF9D5A142D8D3002070BD4F
:100CB000704730B589B005460C461022002105A8C2
:100CC00015F085FF224605A905A815F0E2F968464A
:100CD000007D8021084000281CD000BF00200AE0D1
:100CE00005A9095C490005AB421C9A5CD21111436D
:100CF00005AA1154401C0F28F2DB08A9C97849063F
:100D00000A0E08A9CA7000BFC8788721484008A900
:100D1000C87016E000BF00200AE005A9095C490080
:100D200005AB421C9A5CD211114305AA1154401C18
:100D30000F28F2DB08A9C97849060A0E08A9CA706B
:100D400000BFFF201530005910280FD100BF002030
:100D500009E0E11DFA31095C05AA125C5140E21D6F
:100D6000FA321154401C1028F3DB61E06846007D24
:100D70008021084000281CD000BF00200AE005A9FF
:100D8000095C490005AB421C9A5CD211114305AACB
:100D90001154401C0F28F2DB08A9C97849060A0E35
:100DA00008A9CA7000BFC8788721484008A9C87040
:100DB00016E000BF00200AE005A9095C490005AB68
:100DC000421C9A5CD211114305AA1154401C0F28F1
:100DD000F2DB08A9C97849060A0E08A9CA7000BF43
:100DE0008021FF2015300259E01DFA30815406E0C1
:100DF0000021FF2015300259E01DFA308154FF20F8
:100E000015300059401CFF21153108511028EFD32F
:100E100000BF002009E0E11DFA31095C05AA125C5F
:100E20005140E21DFA321154401C1028F3DB00BF80
:100E300000BF00200AE02146F131095CE21DFA32D0
:100E4000125C51402246F1321154401C1028F2DB52
:100E500000BF10222146F13101A815F09EFE224666
:100E6000294601A815F015F91022002105A815F052
:100E7000AEFE09B030BD10B5044610220021204658
:100E8000F13015F0A4FE0021FF2015300151F022B1
:100E9000204615F09CFE10BD70B504460D46224656
:100EA0001021284615F022F970BDF0B585B0044632
:100EB0000F461546FF201530005900283ED0FF2070
:100EC000153000591021081AA84204D2FF2015300D
:100ED0000059081A00E028460646B2B2FF21153133
:100EE0000959E31DFA33C818394615F056FEFF209C
:100EF000153000598119FF20153001510059102873
:100F000001D3B54201D105B0F0BD00BF00200AE019
:100F10002146F131095CE21DFA32125C5140224651
:100F2000F1321154401C1028F2DB00BF224621464A
:100F3000F131084615F0ADF8BF19AD1B21E000BF37
:100F4000002008E02146F131095C3A5C514022461C
:100F5000F1321154401C1028F4DB00BF102221464E
:100F6000F131684615F019FE22466946684615F0CB
:100F700090F8102269462046F13015F00EFE103729
:100F8000103D102DDBD8AAB23946E01DFA3015F01D
:100F900004FEFF201530055100BFB4E71CB50F4813
:100FA0000079002814D10120694608710C48806836
:100FB00000900A493C31C968087869460EF0A8FDDE
:100FC000002106484438017700200449087100BF19
:100FD00002484438807E014948711CBDC41000207D
:100FE000EC1200201CB51A48817E407E81422EDA28
:100FF0001748807E401C16498876887EC10F0918E4
:1010000049104900411A012921D122216846017164
:101010000F488030C068FF301930017D684681710B
:101020000B488030C068F830417868464171084903
:101030008031C968087801A90EF024FD009000985D
:1010400041B203488030C068F830417000BF1CBD19
:101050008010002070477047704770477047704796
:1010600070470000FFB587B004461F460020069079
:1010700010256557112020560590A06838606079CA
:10108000012858D1022168460174A17C8174E07C5A
:1010900004A90EF0F7FC0390039846B2B54201DDB7
:1010A000284600E030460546B54203D100203860AE
:1010B000069040E0A189A068884202D301200690F2
:1010C00001E000200690A089E1894018A1688842CB
:1010D00031D81DA014F0C4F9082069460874E07CDA
:1010E00004A90EF0CFFC0390039840B20590E1896B
:1010F000A068FEF7F1FF01291DD113A014F0B0F98B
:101100002221684601744574A17C8174E07C04A9A5
:101110000EF0B8FC0390039845B2B5420BD1002005
:1011200006902079012806D169460872E07C01A961
:101130000EF0EEFC00BF089805700999059808703C
:1011400006980BB0F0BD00004C4F574552494E4732
:101150002044415441524154450A00003EB50446E2
:101160002548C068FF30C130007D002802D16946A3
:10117000087002E00120694608701F48C068FF300F
:101180002130417F68468170C4701B49C968FF31B6
:101190008131C86C13F0DCFA019017488038006A7E
:1011A00002900021684641701348407A4007C00F02
:1011B000002807D0002004F08FFB002802D0012077
:1011C000694648700C49C968087869460CF026FCE5
:1011D00009488038006A0849C968FF31C131498827
:1011E000484305498039096A411A0348C068FF30FD
:1011F000813081643EBD00000011002010B504461E
:101200000748006D002809D00548006D8068002857
:1012100004D00348006D81682046884710BD000057
:10122000800F002038B505460C4600200090694626
:10123000284601F07DF8002801D0002038BD009834
:10124000844203D80098401C002801D10120F5E712
:101250000020F3E70B48807E0A49497E884201DB83
:101260000120704707488030407A8007C00F00286F
:1012700005D0044844300079012800D1F1E700206E
:10128000EFE70000801000201148017E8030C06828
:10129000FF3019300078814201DB012070470C4893
:1012A0008030407A8007C00F00280FD00848803077
:1012B000C068E030007C002801D10120EEE704483E
:1012C0002430407C002801D10120E7E70020E5E739
:1012D00080100020FFB585B004460E460E9F002EFC
:1012E00001D0002F02D1022009B0F0BD1748FFF74E
:1012F000C2FD6946089801F001F80546002D22D18B
:101300000099491C1148FFF7C7FD002C04D010229A
:1013100021460E48FFF7C9FD31460C48079AFFF7F2
:10132000C4FD0A4901A8FFF7C4FC6946C879000654
:1013300089790904084369464979090208436946DD
:101340000979084338602846CEE70000D00900201C
:10135000FFB587B005460C461646139F002D01D0F9
:10136000002F02D10A200BB0F0BDFF2001308442D3
:1013700001DD0E20F7E703AA129911986B4607C307
:1013800031462046109B0A9A07F040FA334622461F
:10139000294603A8009712F0EFF9002801D00F208A
:1013A000E1E70020DFE70000FEB5054600200190E0
:1013B000029000902448047D002D01D10320FEBD41
:1013C00000BF2046E10F0918C9050E0EE10F0918EC
:1013D00049104900611A04D170001B49091F0F5CB4
:1013E00004E070001849091F085A07126A46394676
:1013F00001A800F0BFFD032800D1E0E768460078AF
:1014000000280ADD68460078411E002016F042FAE6
:1014100001A9085CE10040182870601CC4B2072CC8
:1014200000DD002468460078002803D10648007DCE
:10143000A042C6D168460078002803DD0248047542
:101440000020BCE70320BAE74025002030B5024663
:10145000002300200AE00124844014400125854037
:10146000AC4201D15C1CE3B2441CE0B28842F2DB26
:10147000184630BDFFB583B00F461E4600200290CF
:10148000019035A013F0ECFF0025002000905BE0F8
:10149000002450E0009841000598405A0121A140E5
:1014A0000840002844D028190C214843305800280F
:1014B00000D13EE00398002806D10120A04080071B
:1014C000800F002800D134E028190C2358438019DC
:1014D0000823C3561A1128190C2358438019007A7F
:1014E0000007011778B20CF0F8FD002800D120E0C9
:1014F00028190C2148438019407A01010C980818DA
:10150000C068002804D00198401CC0B2019010E0CF
:101510002819C2B20298411CC9B202910D990A540D
:1015200028190C2358433258291912A013F098FF98
:1015300000BF601CC4B2102CACDB28461030C5B212
:101540000098401CC0B20090102DA1DB0E990198AC
:101550000870029807B0F0BD415339323320456E10
:1015600061626C6564204368616E6E656C733A20DD
:10157000000000004368616E6E656C3A20256420AF
:10158000667265713A20256C75207C200000000091
:10159000FFB583B00746164600200290019032A0A6
:1015A00013F05EFF00250020009051E0002446E08B
:1015B000009841000498405A0121A14008400028A9
:1015C0003AD028190C2148433058002800D134E083
:1015D00028190C23584380190823C3561A112819B7
:1015E0000C2358438019007A0007011778B20CF0D9
:1015F00074FD002800D120E028190C2148438019EF
:10160000407A010106980818C068002804D00198A3
:10161000401CC0B2019010E02819C2B20298411CCF
:10162000C9B202910C990A5428190C235843325814
:10163000291914A013F014FF00BF601CC4B2102CB1
:10164000B6DB28461030C5B20098401CC0B20090EE
:10165000482DABDB12A013F003FF0D990198087021
:10166000029807B0F0BD0000415539313520456E74
:1016700061626C6564204368616E6E656C733A20CC
:10168000000000004368616E6E656C3A202564209E
:10169000667265713A20256C75207C200000000080
:1016A0000A000000FFB583B00746164600200290EE
:1016B000019030A013F0D4FE00250020009051E0EE
:1016C000002446E0009841000498405A0121A140BE
:1016D000084000283AD028190C21484330580028E7
:1016E00000D134E028190C23584380190823C3562D
:1016F0001A1128190C2358438019007A0007011782
:1017000078B20CF0EAFC002800D120E028190C2166
:1017100048438019407A010106980818C0680028DB
:1017200004D00198401CC0B2019010E02819C2B248
:101730000298411CC9B202910C990A5428190C2331
:1017400058433258291912A013F08AFE00BF601CBA
:10175000C4B2102CB6DB28461030C5B20098401C2D
:10176000C0B20090602DABDB0D9901980870029813
:1017700007B0F0BD434E34373020456E61626C6572
:1017800064204368616E6E656C733A20000000004F
:101790004368616E6E656C3A2025642066726571DF
:1017A0003A20256C75207C2000000000FFB583B036
:1017B0000F461E4600200290019035A013F050FE07
:1017C0000025002000905BE0002450E000984100DC
:1017D0000598405A0121A1400840002844D028190A
:1017E0000C2148433058002800D13EE003980028DF
:1017F00006D10120A0404007400F002800D134E06E
:1018000028190C23584380190823C3561A11281984
:101810000C2358438019007A0007011778B20CF0A6
:101820005CFC002800D120E028190C2148438019D5
:10183000407A01010C980818C068002804D001986B
:10184000401CC0B2019010E02819C2B20298411C9D
:10185000C9B202910D990A5428190C2358433258E1
:10186000291912A013F0FCFD00BF601CC4B2102C9B
:10187000ACDB28461030C5B20098401CC0B20090C6
:10188000102DA1DB0E9901980870029807B0F0BDE9
:10189000434E37373920456E61626C65642043687A
:1018A000616E6E656C733A20000000004368616EE3
:1018B0006E656C3A20256420667265713A20256C4D
:1018C00075207C2000000000FFB583B00F461E4647
:1018D00000200290019035A013F0C2FD00250020E9
:1018E00000905BE0002450E0009841000598405AC9
:1018F0000121A1400840002844D028190C21484368
:101900003058002800D13EE00398002806D101207D
:10191000A0404007400F002800D134E028190C23D4
:10192000584380190823C3561A1128190C23584309
:101930008019007A0007011778B20CF0CEFB00285E
:1019400000D120E028190C2148438019407A010178
:101950000C980818C068002804D00198401CC0B238
:10196000019010E02819C2B20298411CC9B202913C
:101970000D990A5428190C2358433258291912A0DA
:1019800013F06EFD00BF601CC4B2102CACDB284607
:101990001030C5B20098401CC0B20090102DA1DBE1
:1019A0000E9901980870029807B0F0BD4555343380
:1019B0003320456E61626C6564204368616E6E65BC
:1019C0006C733A20000000004368616E6E656C3AEB
:1019D00020256420667265713A20256C75207C2074
:1019E00000000000FFB583B00F461E4600200290A5
:1019F00001900025009053E0002448E00098410049
:101A00000598405A0121A140084000283CD02819DF
:101A10000C2148433058002800D136E003980028B4
:101A200006D10120A0404007400F002800D12CE043
:101A300028190C23584380190823C3561A11281952
:101A40000C2358438019007A0007011778B20CF074
:101A500044FB002800D118E028190C2148438019C4
:101A6000407A01010C980818C068002804D0019839
:101A7000401CC0B2019008E02819C2B20298411C73
:101A8000C9B202910D990A5400BF601CC4B2102C57
:101A9000B4DB28461030C5B20098401CC0B200909C
:101AA000102DA9DB0E9901980870029807B0F0BDBF
:101AB000FFB583B00F461E4600200290019035A06E
:101AC00013F0CEFC0025002000905BE0002450E0E5
:101AD000009841000598405A0121A1400840002883
:101AE00044D028190C2148433058002800D13EE04A
:101AF0000398002806D10120A0404007400F00288D
:101B000000D134E028190C23584380190823C35608
:101B10001A1128190C2358438019007A000701175D
:101B200078B20CF0DAFA002800D120E028190C2154
:101B300048438019407A01010C980818C0680028B1
:101B400004D00198401CC0B2019010E02819C2B224
:101B50000298411CC9B202910D990A5428190C230C
:101B600058433258291912A013F07AFC00BF601CA8
:101B7000C4B2102CACDB28461030C5B20098401C13
:101B8000C0B20090102DA1DB0E9901980870029848
:101B900007B0F0BD4B5239323020456E61626C6542
:101BA00064204368616E6E656C733A20000000002B
:101BB0004368616E6E656C3A2025642066726571BB
:101BC0003A20256C75207C2000000000FFB583B012
:101BD0000F461E4600200290019035A013F040FCF5
:101BE0000025002000905BE0002450E000984100B8
:101BF0000598405A0121A1400840002844D02819E6
:101C00000C2148433058002800D13EE003980028BA
:101C100006D10120A0408007800F002800D134E0C9
:101C200028190C23584380190823C3561A11281960
:101C30000C2358438019007A0007011778B20CF082
:101C40004CFA002800D120E028190C2148438019C3
:101C5000407A01010C980818C068002804D0019847
:101C6000401CC0B2019010E02819C2B20298411C79
:101C7000C9B202910D990A5428190C2358433258BD
:101C8000291912A013F0ECFB00BF601CC4B2082C91
:101C9000ACDB28461030C5B20098401CC0B20090A2
:101CA000082DA1DB0E9901980870029807B0F0BDCD
:101CB000525538363420456E61626C656420436845
:101CC000616E6E656C733A20000000004368616EBF
:101CD0006E656C3A20256420667265713A20256C29
:101CE00075207C2000000000FFB583B00746164633
:101CF00000200290019032A013F0B2FB00250020DA
:101D0000009051E0002446E0009841000498405AB9
:101D10000121A140084000283AD028190C2148434D
:101D20003058002800D134E028190C23584380197A
:101D30000823C3561A1128190C2358438019007A16
:101D40000007011778B20CF0C8F9002800D120E094
:101D500028190C2148438019407A01010698081877
:101D6000C068002804D00198401CC0B2019010E067
:101D70002819C2B20298411CC9B202910C990A54A6
:101D800028190C2358433258291914A013F068FB62
:101D900000BF601CC4B2102CB6DB28461030C5B2A0
:101DA0000098401CC0B20090482DABDB10A013F08F
:101DB00057FB0D9901980870029807B0F0BD00001C
:101DC000555339313520456E61626C656420436836
:101DD000616E6E656C73202D2000000043683A2010
:101DE000256420467265713A20256C75207C2000A0
:101DF0000A00000070470000FFB585B00446154694
:101E00000698002804D0002D02D00898002802D19E
:101E10000A2009B0F0BD00200190029003900490C8
:101E2000052C06D0062C05D0072C04D0082C0AD18E
:101E300005E000BF00BF01206946087105E00220EF
:101E40006946087101E00B20E3E700BF032201A807
:101E50000130069914F0A1FE0322294602A814F0CD
:101E60009CFE022202A80330089914F096FE0D4849
:101E700040682346022201A906460090377838467A
:101E800077783F023843B7783F043843F678360610
:101E9000304311F084FC002801D00F20B9E7002066
:101EA000B7E700005C1400200246002A01D0002998
:101EB00001D103207047107B0007000F002806DDCA
:101EC0002020805C002802DD0020087020E028200F
:101ED000805C002802D10120087019E0107B000707
:101EE000000F002806D12020805C002802D10220AB
:101EF00008700DE0107B0007000F002806D120209D
:101F0000805C002802DD0320087001E01720D1E783
:101F10000020CFE77047704702A013F0A1FA00BF7E
:101F2000FEE700006572726F720A000010B50520AE
:101F3000FFF764F910BD10B50420FFF75FF910BD7D
:101F400010B50620FFF75AF910BD10B50220FFF7B3
:101F500055F910BD10B50020FFF750F910BD10B5B0
:101F60000120FFF74BF910BD10B50320FFF746F92C
:101F700010BD704710B50346002B01D0002A01D1D7
:101F8000032010BD0020107000BF0BE0012484402E
:101F90000C40002C04D0147818551478641C14706C
:101FA000441CE0B20828F1DB0020EAE710B5044643
:101FB000002C00D110BD10220021204614F007FE95
:101FC0000120F7E77047000010B5044800F0EAFA76
:101FD000002802D0014800F0EDFA10BDD003002027
:101FE00001468800094A1058094A8018002807D07D
:101FF0008018002806D052008018002804D000BFA6
:10200000002070470120FCE70220FAE7D883051082
:10201000B817FEFF01468800094A1058094A80187F
:10202000002807D08018002806D052008018002809
:1020300004D000BF002070470120FCE70220FAE72F
:1020400080840510B817FEFF01468800094A105821
:10205000094A8018002807D08018002806D05200AE
:102060008018002804D000BF002070470120FCE742
:102070000220FAE74C850510B817FEFF01468800DC
:10208000094A1058094A8018002807D080180028EB
:1020900006D052008018002804D000BF00207047EE
:1020A0000120FCE70220FAE798850510B817FEFF2B
:1020B00001468800094A1058094A8018002807D0AC
:1020C0008018002806D052008018002804D000BFD5
:1020D000002070470120FCE70220FAE7388605104F
:1020E000B817FEFF01468800094A1058094A8018AF
:1020F000002807D08018002806D052008018002839
:1021000004D000BF002070470120FCE70220FAE75E
:10211000D8860510B817FEFF01468800094A1058F6
:10212000094A8018002807D08018002806D05200DD
:102130008018002804D000BF002070470120FCE771
:102140000220FAE7C8870510B817FEFF014688008D
:10215000094A1058094A8018002807D0801800281A
:1021600006D052008018002804D000BF002070471D
:102170000120FCE70220FAE75C880510B817FEFF93
:1021800001468800094A1058094A8018002807D0DB
:102190008018002806D052008018002804D000BF04
:1021A000002070470120FCE70220FAE7EC880510C8
:1021B000B817FEFF08B5194819490860FF20DD303F
:1021C00048600846143003F0BDFC15490861002042
:1021D00000901449C968087869460DF01BFC104945
:1021E00088600098C86008461C3011F00BFB0C4951
:1021F00088610846243003F0EDF909490862084671
:102200002C3003F081F9064988620846343003F027
:10221000E9FA03490863084608BD000010110020D0
:10222000EC12002000110020F8B505460E461746B6
:10223000344608E02078A84201D12046F8BD204667
:1022400002F052FC0446BC42F4D10020F6E7FFB590
:1022500081B005460E4617460B9C002F04D0002C7B
:1022600002D00C98002802D10A2005B0F0BD2B0046
:1022700013F049F90515181B1E0421006846807CDF
:10228000012809D1002E01D0032E02D10220207096
:1022900004E00120207001E0032020700DE0042004
:1022A00020700AE00520207007E00620207004E07E
:1022B0000720207001E00520D7E700BFFA892078C9
:1022C0000C9B0A9903F0E6FBCFE7000010B502462D
:1022D0000B4600210BE08800074C205C904204D1A3
:1022E000880000191860002010BD481CC1B20529E3
:1022F000F1DB0C20F8E700003805002030B502467D
:102300000B4600210DE008010818084C205C9042A3
:1023100005D10801081800191860002030BD481CBC
:10232000C1B21829EFDB0320F8E70000E80A00201B
:1023300000B50246002901D10A2000BD130013F0A8
:10234000E2F8083A05101B262B30353A1C48406845
:10235000006908601A4840681030194B5B681863C0
:102360002BE0174840684069086015484068143001
:10237000134B5B68186320E011484068806908606F
:102380000F48406818300E4B5B68186315E00C4826
:102390004068C069086010E009484068006A086049
:1023A0000BE007484068406A086006E0044840685F
:1023B000806A086001E00520BFE700BF0020BCE79D
:1023C0005C1400201CB504460E48C068FF3019306C
:1023D000017D6846817144710D2101710948C06811
:1023E000FF302130C07F012802D10E2069460871DC
:1023F0000449C968087801A90DF044FB00900098D1
:10240000C0B21CBD0011002001460348814201D327
:102410000E2070470A20FCE72021F63602460023F2
:102420008A4201D1CBB201E0501EC3B258B270470C
:10243000024600238A4201D1CBB205E0082A01D12D
:10244000062301E0501EC3B258B270470246002373
:102450008A4201D1CBB201E0501EC3B258B27047DC
:10246000024600238A4201D1CBB201E0501EC3B222
:1024700058B27047024600238A4201D1CBB201E034
:10248000501EC3B258B27047024600238A4201D19F
:10249000CBB201E0501EC3B258B2704702460023CF
:1024A0008A4201D1CBB201E0501EC3B258B270478C
:1024B000024600238A4201D1CBB201E0501EC3B2D2
:1024C00058B27047024600238A4201D1CBB201E0E4
:1024D000501EC3B258B2704770B50446002525207F
:1024E000005D022803D00420E063012520E020687D
:1024F00000680E2188432168086020680068400851
:102500004000216808603C21606C08400121814046
:10251000206C416001212520015500BF00212420AD
:10252000015500BFA06B002802D02046A16B884750
:10253000284670BD70B5044600F05AFA0646254696
:10254000681C002802D0054800682D1800BF00F064
:102550004FFA801BA842FAD370BD0000100600207D
:1025600010B50446206802F023FB10BD10B50246EA
:10257000002A01D1012010BD012907D110688B0765
:102580009B6903438C07A36100BF09E01068012326
:102590009B079B6983430124A407A36100BF00BF7D
:1025A0000020E8E770B50446206802F005FB054608
:1025B000284670BD70B50446206802F0FDFA054655
:1025C000002D08D06068002802D061682068884724
:1025D000206802F0EDFA70BD10B503460020002916
:1025E00001D15A6001E0012000BF00BF10BD70B5ED
:1025F00005460C46002D01D0002C01D1012070BDF4
:102600002068286021792068002907D101229207DB
:10261000D268824301239B07DA6006E00122920719
:10262000D268024301239B07DA6000BF207A216849
:1026300002F0CDFA0020E2E7F0B50A46002162E0A0
:1026400001258D402C461440002C5BD00925ED0659
:10265000A84202D1C500AD6902E00125AD07AD6910
:102660000925ED06A84202D1C500E96103E00D0489
:102670000126B607F5610925ED06A84203D101251B
:102680008D40EB4303E001258D402D04EB430125F4
:10269000AD07ED681D400126B607F56035462D698A
:1026A0001D40356135466D691D40756105684F00F7
:1026B0000326BE4035430560CD08AE0005462035F3
:1026C000AD594E07F70E0F26BE40B543CE08B600F3
:1026D00007462037BD5185684F000326BE40B543ED
:1026E0008560456801268E40B5434560C5684F004A
:1026F0000326BE40B543C560C5684F000126BE40F5
:102700003543C560491C1546CD40002D98D1F0BD1C
:10271000F8B50346002252E1012696400D68354087
:10272000002D72D04C68022C02D04C68122C15D1AE
:10273000D408A6001C462034A0595407E60E0F24E6
:10274000B4400646A64330465607F60E0C69B44020
:102750002043D408A4001E46203630511868560085
:102760000324B4400646A64330460C79A407A40FC0
:102770005600B440204318604C68012C08D04C68C7
:10278000022C05D04C68112C02D04C68122C18D1A8
:10279000986856000324B4400646A64330465600C7
:1027A000CC68B440204398605868012494400646A1
:1027B000A643304610264C683440240994402043F8
:1027C00058600924E406A3422DD18C68002C04D063
:1027D000012C0ED0022C25D118E00C687B4E366AF5
:1027E000A6437A4F3E623E46766AA6437E6200BFAB
:1027F00018E00C68754E766AA643744F7E623E46BA
:10280000366A26433E6200BF0CE0BAE00C686F4EA9
:10281000366AA6436D4F3E623E46766A26437E6226
:1028200000BF00BF2CE08C68002C04D0012C0ED01F
:10283000022C24D117E00C68644EB66AA643634F9D
:10284000BE623E46F66AA643FE6200BF17E00C6811
:102850005E4EF66AA6435D4FFE623E46B66A26436A
:10286000BE6200BF0BE00C68584EB66AA643574FD5
:10287000BE623E46F66A2643FE6200BF00BF00BF4E
:10288000012636074C683440B4427AD100240094C3
:10289000B400E0680924E406A3420CD1012494406A
:1028A0000646A6433046012636044C6834402409C7
:1028B000944020430DE00124944026040446B44390
:1028C0002046012636044C683440240994402404F0
:1028D00020430124A407E060012636044C683440FC
:1028E000002C2AD1B40320690924E406A34205D1AF
:1028F000012494400646A643304605E00124944056
:1029000026040446B4432046032636054C6834406A
:10291000B4420FD101240094A40760610924E406A5
:10292000A34203D101249440204303E001249440B6
:10293000240420430124A40720610124A407606922
:10294000009C002C22D10924E406A34205D10124D5
:1029500094400646A643304605E0012494402604F0
:102960000446B4432046012636054C683440B44240
:102970000CD10924E406A34204D10124944020434D
:1029800004E01BE001249440240420430124A40714
:1029900060610924E406A34202D1DC00A46902E0DC
:1029A0000124A407A4690924E406A34202D1DC009F
:1029B000E26103E014040126B607F461521C0C68BE
:1029C000D440002C00D0A7E6F8BD0000000050481D
:1029D000024613690B40002B01D0012000E00020CB
:1029E0007047002A01D0816100E0816270470000D9
:1029F0000148006870470000080600200246412098
:102A0000805C20282FD100BF4020805C012801D1AC
:102A10000220704701234020835400BF242341201B
:102A200083541068006840084000136818601068FC
:102A3000006801231B03984313681860106800683E
:102A4000084313681860106800680123184313686E
:102A5000186020234120835400BF0023402083546A
:102A600000BF0020D5E70220D3E710B502460B4691
:102A70004120805C20282ED100BF4020805C0128AE
:102A800001D1022010BD01244020845400BF242421
:102A90004120845410680068400840001468206099
:102AA000106801680F2424020846A043014618025A
:102AB0000143106801601068006801242043146815
:102AC000206020244120845400BF002440208454EE
:102AD00000BF0020D6E70220D4E7000010B504466E
:102AE000002C01D1012010BD4120005D002805D13E
:102AF000002140200155204600F01AFA24214120EF
:102B000001552068006840084000216808600F21D6
:102B1000090660688843216808612068806801218F
:102B2000C903884321688860E068012806D1012133
:102B3000C903A06808432168886005E02121890253
:102B4000A068084321688860E068022802D18002FA
:102B5000216848602068406814490843216848603B
:102B60002068C0680121C90388432168C860616981
:102B700020690843A169090208432168C860216AE5
:102B8000E069084321680860206800680121084363
:102B90002168086000206064202141200155002048
:102BA000206300214220015500209CE700800002A4
:102BB000FFB583B004460C9F0E9E4120005D202887
:102BC0007ED1002F02D00D98002805D101204002AF
:102BD0006064012007B0F0BD00BF4020005D012807
:102BE00001D10220F6E701214020015500BFFFF787
:102BF000FFFE054619230122D1032046009501F06E
:102C0000B5FE002801D00120E4E722214120015532
:102C10004021422001550020606467620D98608564
:102C20000020606300960195204604A90EC901F0BA
:102C300001FE002806D000BF00214020015500BF42
:102C40000120C7E7608DFF280CD9FF20208541486F
:102C50000090208DC2B201231B062046049901F08A
:102C600069FE0BE0608D20853A480090208DC2B24D
:102C700001235B062046049901F05CFE00BF334649
:102C8000002204212046009501F070FE002801D0AA
:102C900001209FE72068406A616A0870606A401CF2
:102CA0006062208D401E2085608D401E6085608D95
:102CB00000282BD0208D002828D13346002200E0A8
:102CC00045E080212046009501F050FE002801D00B
:102CD00001207FE7608DFF280CD9FF202085002090
:102CE0000090208DC2B201231B062046049901F0FA
:102CF00021FE0BE0608D208500200090208DC2B267
:102D000001235B062046049901F014FE608D002823
:102D1000B5D12A463146204601F054FE002801D0A4
:102D2000012057E720202168C861206840680A49CF
:102D3000084021684860202141200155002142209F
:102D4000015500BF4020015500BF002042E702208E
:102D500040E700000024008000E800FEFFB583B0DB
:102D600004460C9F0E9E4120005D20287ED1002F3E
:102D700002D00D98002805D1012040026064012096
:102D800007B0F0BD00BF4020005D012801D1022046
:102D9000F6E701214020015500BFFFF729FE054657
:102DA00019230122D1032046009501F0DFFD002800
:102DB00001D00120E4E7212141200155402142209A
:102DC00001550020606467620D9860850020606393
:102DD00000960195204604A90EC901F06BFD00285C
:102DE00006D000BF00214020015500BF0120C7E7E9
:102DF000608DFF280CD9FF20208500200090208DB9
:102E0000C2B201231B062046049901F093FD0BE09A
:102E1000608D208500200090208DC2B201235B06CA
:102E20002046049901F086FD00BF2A46314620461F
:102E300001F0F5FD002801D00120A1E7606A0078CB
:102E400021688862606A401C6062608D401E6085F7
:102E5000208D401E2085608D00282BD0208D0028DD
:102E600028D1334600228021204600E043E000952F
:102E700001F07CFD002801D0012081E7608DFF2852
:102E80000CD9FF20208500200090208DC2B20123A4
:102E90001B062046049901F04DFD0BE0608D208556
:102EA00000200090208DC2B201235B0620460499C9
:102EB00001F040FD608D0028B7D12A4631462046FA
:102EC00001F080FD002801D0012059E72020216871
:102ED000C86120684068094908402168486020218D
:102EE0004120015500214220015500BF40200155DD
:102EF00000BF002044E7022042E7000000E800FE97
:102F000010B504460749206888420AD140020649A4
:102F100089698143044A916100BFC0210348FFF7DA
:102F20008BFB10BD001000414000404800001048DD
:102F300010B586B004461E492068884235D1082065
:102F40001C49096901431B4A116111460969014085
:102F5000009100BF00BF402001901220029001208C
:102F60000390022004900020059001A91248FFF769
:102F7000CFFB8020019012200290012003900220BC
:102F800004900020059001A90B48FFF7C1FB012028
:102F9000C005084989690143064A9161114689695A
:102FA0000140009100BF00BF00BF06B010BD00008F
:102FB00000100041400040480000104803480068ED
:102FC0000349096840180149086070470806002055
:102FD0001006002010B50024032000F009F8002896
:102FE00001D0012401E000F031F8204610BD0000BE
:102FF000F8B5044600251348006800281ED0114883
:1030000001687D20C000FDF767F8074600F06EF804
:1030100039460090FDF760F8064600F055FF00289D
:103020000AD1042C06D22146401E00F057F806486B
:10303000046004E0012502E0012500E001252846A6
:10304000F8BD0000100600200C06002008B5012184
:10305000881E00F043F8FF2001300649496901430A
:10306000044A5161114649690140009100BF00BF07
:1030700008BD0000400040480146002905DBCB06A2
:10308000DB0E01229A40024B1A6000BF704700001D
:1030900080E200E00146002909DBCB06DB0E0122BD
:1030A0009A40044B1A60BFF34F8FBFF36F8F00BF7E
:1030B0007047000080E100E00146002909DB00BF05
:1030C00000BFCB06DB0E01229A40034B1A6000BF03
:1030D00000BF00BF7047000000E100E070B504468B
:1030E0000D462946204612F033FA70BD01480068AB
:1030F0007047000014060020024610680346503353
:103100008800C3181868704710B504682346503308
:103110008C00E3181A6010BD70B504460E4600BF5F
:10312000207E012801D1022070BD0120207600BF41
:103130000220607600BFCA202168486253202168BF
:10314000486200BFFF200130864229D12068806894
:10315000314688432168886020688068310188434F
:1031600021688860FFF744FC054613E0FFF740FC48
:10317000401B7D21C90088420CD900BFFF20216877
:10318000486200BF0320607600BF0020207600BFA9
:103190000320C9E72068C068C007C00F0028E5D039
:1031A00000BFFF202168486200BF0120607600BF99
:1031B0000020207600BF00BFB6E70000F0B506464D
:1031C0000C46174630684068124908400546FF2003
:1031D00000042840000CE0701F2000022840000A74
:1031E0006070A806800EA070072040032840400BA6
:1031F0002070002F0BD1E07806F00CFDE0706078B5
:1032000006F008FD6070A07806F004FDA0700020B4
:10321000F0BD00003FFFFF00F0B505460C46174625
:103220002868806A6060286800694004400CA060DB
:10323000286800681249084006463F2000043040D4
:10324000000C20707F2000023040000A6070700681
:10325000400EA070012080053040000CE070002F6F
:103260000BD1207806F0D6FC2070607806F0D2FCF6
:103270006070A07806F0CEFCA0700020F0BD0000C9
:103280007F7F7F0010B50446002C01D1012010BDC6
:10329000607E002803D12076204600F05BF80220F3
:1032A000607600BFCA2021684862532021684862C6
:1032B00000BF204606F0C8FC002808D000BFFF2051
:1032C0002168486200BF042060760120DFE72068A3
:1032D00080681F4908402168886021696068084348
:1032E000616908432168896808432168886021680A
:1032F000E0680861206800692189090408432168A1
:1033000008612068C068802188432168C8602068FF
:10331000806820210840002811D1204600F014FACE
:1033200000280CD000BFFF202168486200BF0420A5
:10333000607600BF0020207600BF0120A7E700BF15
:10334000FF202168486200BF0120607600209EE7D0
:10335000BFFF8FFF08B50146084A086890420CD1AC
:103360008014074A52690243054B5A611A46526952
:103370000240009200BF00BF00BF08BD00400040F7
:1033800040004048F7B582B004460D4600BF207E9D
:10339000012802D1022005B0F0BD0120207600BF37
:1033A00002206076049800282AD120688068402195
:1033B0000840002800D002E00020E87000BFE86963
:1033C000002800D100E000BF287806F02FFC070499
:1033D000687806F02BFC00020743A87806F026FC6C
:1033E0000743E878000407432021485D06F01EFCEF
:1033F00000060743E869074368690743019721E02E
:103400002068806840210840002800D002E00020A9
:10341000E87000BFE869002800D100E000BF28780C
:103420000004697809020843A9780843E978090487
:1034300008432021495D09060843E9690843696991
:1034400008430190A96968680843009000BFCA203A
:103450002168486253202168486200BFFF21013182
:10346000686A88423ED12068806888432168886005
:103470002068C06880210840214908432168C8604D
:10348000FFF7B6FA064613E0FFF7B2FA801B7D217C
:10349000C90088420CD900BFFF202168486200BFE4
:1034A0000320607600BF0020207600BF032072E773
:1034B0002068C068C007C00F0028E5D001982168C7
:1034C000C86100982168486420688068FF21013144
:1034D0000843216888602068806801210903084347
:1034E0002168886000BFFF202168486200BF01207A
:1034F000607600BF0020207600BF00BF4BE70000D1
:103500007FFEFFFFF7B504460D4600BF207E012871
:1035100001D10220FEBD0120207600BF022060768E
:103520000298002809D1687810210840102804D199
:103530006878EF2108400A3068700298002811D19D
:10354000E87806F073FB0704687806F06FFB00026A
:103550000743A87806F06AFB0743287840033E46F5
:1035600006430AE0E8780004697809020843A9786C
:103570000843297849030843064600BFCA2021684A
:10358000486253202168486200BF204606F05CFB79
:1035900000280CD000BFFF202168486200BF042033
:1035A000607600BF0020207600BF0120B2E71748F8
:1035B0003040216848602068C068802188432168C5
:1035C000C8602068806820210840002811D120466A
:1035D00000F0BAF800280CD000BFFF202168486234
:1035E00000BF0420607600BF0020207600BF0120CD
:1035F00090E700BFFF202168486200BF012060768D
:1036000000BF0020207600BF00BF83E73FFFFF0020
:10361000F7B504460D4600BF207E012801D10220E7
:10362000FEBD0120207600BF0220607602980028AF
:103630001BD12068806840210840002800D002E0AB
:103640000020E87000BF287806F0F0FA07046878D8
:1036500006F0ECFA00020743A87806F0E7FA074301
:10366000E87800043E46064314E020688068402164
:103670000840002800D002E00020E87000BF287851
:103680000004697809020843A9780843E978090425
:103690000843064600BFCA202168486253202168BB
:1036A000486200BF204606F0CFFA00280CD000BFC9
:1036B000FF202168486200BF0420607600BF002020
:1036C000207600BF0120ABE71E483040216808602B
:1036D00020688068012189048843216888602969FD
:1036E000E868084321688968084321688860206881
:1036F000C068802188432168C860206880682021D4
:103700000840002811D1204600F01EF800280CD0F7
:1037100000BFFF202168486200BF0420607600BF20
:103720000020207600BF01207AE700BFFF2021683B
:10373000486200BF0120607600BF0020207600BFF5
:1037400000BF6DE77F7F7F0070B504462068C068CA
:10375000A02188432168C860FFF74AF9054608E0C0
:10376000FFF746F9401B7D21C900884201D903209B
:1037700070BD2068C068202108400028F0D00020DB
:10378000F6E77047F8B50446206846682068856803
:1037900040202840800900280FD1E807C00F0121F0
:1037A00048404840002808D0402030408009002888
:1037B00003D02046E16C8847F8BD0220284040082D
:1037C000002808D080203040C009002803D02046BF
:1037D000216D8847F0E720202840400900280AD1C1
:1037E000402028408009002805D1FF2001302840D2
:1037F000000A00287ED02020304040090028F9D05F
:1038000040202840800900281ED05D20005D03284C
:103810000ED0206E04210843206600BF00200090D7
:103820002068C068009020688068009000BF0BE0AE
:1038300000BF002000902068C06800902068806869
:10384000009000BF00BFB7E72020284040090028B3
:1038500011D0206E01210843206600BF0020009097
:1038600020688068009020680068402188432168B3
:10387000086000BF00BFFF2001302840000A002878
:103880000BD0206E08210843206600BF0020009066
:1038900020688068009000BF00BF206E00283AD0EA
:1038A00020684068E02188432168486001215D204C
:1038B000015502203040022803D0F007C00F002835
:1038C00026D0206840688008800021684860A06D8C
:1038D00000280BD01148A16D8863A06DFEF7FCFD98
:1038E000002803D0206E402108432066606D002828
:1038F00011D000E010E00948616D8863606DFEF74B
:10390000EBFD002807D0206E40210843206602E02E
:103910002046FFF736FF4FE700BF4DE7F9260510B9
:1039200070B50446002C01D1012070BD606A0028EA
:1039300000D100BF01214903A06A884200D100BF25
:103940005D20005D002805D100215C200155204646
:1039500000F06CF802215D200155206800684021CC
:1039600088432168086007210902E068884201D97C
:10397000002501E001252D030F210902E06888429E
:1039800006D007210902E068884201D00021A16227
:10399000206B002809D107210902E068884202D97A
:1039A0000221216301E001212163A16860680843CD
:1039B000216908436169084301225202A16911404B
:1039C0000843E1690843216A0843A16A0843216862
:1039D0000860206B022805D1206800689100084328
:1039E00021680860A069000C04210840616A08434E
:1039F000616B0843E168084328432168486001215E
:103A00004903A06A884202D12168E06A08612068FF
:103A1000C0690121C90288432168C861002020666D
:103A200001215D20015500207FE7000010B586B020
:103A300004461A49206888422DD1012001F0AAF8D5
:103A40000120800301900220029000200390049046
:103A50000220059001A90920C006FEF759FE0120A9
:103A60004003019002200290039000200490022065
:103A7000059001A90920C006FEF74AFE0120800337
:103A8000019002200290039000200490059001A96B
:103A90000348FEF73DFE06B010BD000000200041C7
:103AA00000001048FFB589B004461D46129E012053
:103AB00002900020019000BF5C20005D012802D12F
:103AC00002200DB0F0BD01215C20015500BFFEF7C2
:103AD0008FFF07465D20005D0590606806900895A1
:103AE0000795206800680490206840680390059856
:103AF00001280DD0FF2105310698884205D1A06824
:103B0000002802D10598042802D002200190CCE1BF
:103B10000A98002804D00B98002801D0002D02D16B
:103B200001200190C1E15D20005D042802D0052143
:103B30005D200155002020660B9820644620055327
:103B4000442005530A98A063E587A5870020E06418
:103B5000206501214903A06A88420DD100BF206879
:103B600000688843216808602068006801214903D3
:103B700008432168086000BF07210902E068884205
:103B800002D80798012807D9206840680121090355
:103B900088432168486006E02068406801210903E5
:103BA0000843216848602068006840210840402898
:103BB00004D02068006808432168086007210902D2
:103BC000E068884274D96068002802D0089801280B
:103BD00009D1A06B00882168C860A06B801CA0631D
:103BE000E08F401EE0875AE020688068022108408C
:103BF000022830D1E08F00282DD0029801282AD148
:103C0000A06B00882168C860A06B801CA063E08F57
:103C1000401EE08700200290E08F00281BD1012188
:103C20004903A06A884216D104210498084000285C
:103C30000AD1082103980840082805D120680068A7
:103C40008901084321680860206800680121090390
:103C500008432168086020688068C007C00F0028FA
:103C600012D04620005B00280ED02068C068216C6E
:103C70000880206C801C20644620005B401E81B2BE
:103C80004620015301200290FEF7B2FEC01BB04255
:103C900005D3701C002802D00320019005E1E08FBD
:103CA0000028A1D14620005B00289DD1AEE0FFE7AF
:103CB0006068002802D00898012817D1E08F0128F9
:103CC0000AD9A06B00882168C860A06B801CA06323
:103CD000E08F801EE08709E0A06B00782168087300
:103CE000A06B401CA063E08F401EE08786E0206848
:103CF00080680221084002283ED1E08F00283BD096
:103D00000298012838D1E08F01280AD9A06B0088D9
:103D10002168C860A06B801CA063E08F801EE087D4
:103D200009E0A06B007821680873A06B401CA063B9
:103D3000E08F401EE08700200290E08F00281BD11A
:103D400001214903A06A884216D104210498084041
:103D500000280AD1082103980840082805D12068C6
:103D60000068890108432168086020680068012113
:103D7000090308432168086020688068C007C00FF5
:103D800000282ED04620005B00282AD04620005B69
:103D9000012817D92068C068216C0880206C801C1D
:103DA00020644620005B801E81B246200153005BE8
:103DB000012814D8206840680121090308432168BC
:103DC00048600CE02068007B216C0870206C401C6F
:103DD00020644620005B401E81B246200153012032
:103DE0000290FEF705FEC01BB04202D3701C0028F3
:103DF00001D1002E02D10320019056E0E08F00286F
:103E000000D074E74620005B0028FAD10121490365
:103E1000A06A88422ED133460122114620460097DF
:103E20000EF002FD002806D0206E02210843206615
:103E30000320019039E00F210902E068884202D195
:103E40002068C06816E02068007B206B022811D132
:103E5000334601221146204600970EF0E5FC00286B
:103E600006D0206E022108432066032001901CE04A
:103E70002068007B2068806810210840102808D145
:103E8000206E0221084320660D48216888600120C9
:103E900001903A46314620460EF03AFC002803D005
:103EA000012001902020206600BF01215D200155E6
:103EB00000BF00215C20015500BF019801E6000011
:103EC000EFFF00007047000070B504462546681EED
:103ED0000949884201D901200CE0681E0749486160
:103EE0000321081F11F034FB0020044988610720DA
:103EF0000861002070BD0000FFFFFF0000E000E04F
:103F000010B5FFF7DFFF10BD014600BF7C20405C0D
:103F1000012801D10220704701237C20435400BFB7
:103F2000242380204350086802680868006840081D
:103F300040000B68186001235B0710469843024657
:103F4000002048660868026020238020435000BF9C
:103F500000237C20435400BF0020DCE770B50446FA
:103F60000D4600BF7C20005D012801D1022070BDFC
:103F700001217C20015500BF2421802001512068AF
:103F800006682068006840084000216808602068D2
:103F900080680721490688432843216888602046B5
:103FA00010F062FD2068066020218020015100BFD2
:103FB00000217C20015500BF0020D8E770B50446E1
:103FC0000D4600BF7C20005D012801D1022070BD9C
:103FD00001217C20015500BF24218020015120684F
:103FE0000668206800684008400021680860206872
:103FF0008068C000C008284321688860204610F00F
:1040000033FD2068066020218020015100BF00217F
:104010007C20015500BF0020D9E710B50446002CD4
:1040200001D1012010BDA069002800D000E000BF30
:1040300080200059002805D100217C200155204610
:1040400000F02CF8242180200151206800684008ED
:10405000400021680860204610F0FAFD012800D1D8
:10406000E0E7A06A002802D0204610F03FFD20685B
:1040700040680921C9028843216848602068806837
:104080002A2188432168886020680068012108434C
:1040900021680860204610F0A1FDC3E710B586B086
:1040A00004460C492068884212D10120800200F0A9
:1040B00071FD032000020190022002900120039074
:1040C00000200490059001A90920C006FEF720FBFE
:1040D00006B010BD00400041FFB583B004460D4658
:1040E000174680200059202878D1002D01D0002FBC
:1040F00002D1012007B0F0BD01210903A068884268
:1041000008D12069002805D1E807C00F002801D098
:104110000120EFE700BF7C20005D012801D10220D3
:10412000E8E701217C20015500BF002188200151D2
:10413000212180200151FEF75BFC019054200753A0
:104140005620075301210903A068884205D1206940
:10415000002802D10026029502E02E46002002909F
:1041600021E006980090002280212046019B10F05B
:104170003FFF002801D00320BCE7002E09D10298A0
:104180000088C005C00D216888620298801C0290DA
:1041900003E0307821688862761C5620005B401E60
:1041A00081B2562001535620005B0028D9D10698D1
:1041B0000090002240212046019B10F019FF0028AA
:1041C00001D0032096E720218020015100BF00216B
:1041D0007C20015500BF00208CE7FFE7022089E723
:1041E0001FB582200390FF20F530012103AA0B4662
:1041F0000092019102902022BE210348FEF7AEFDFD
:1042000012F088F81FBD0000C807002070B50546F1
:104210000E4614460748854203D1082000F0ACFC46
:1042200002E0042000F0A8FC266021462846FEF7A4
:104230006FFA70BD0000104870B504460D4629465F
:104240002046FEF7C5FB70BD70B505460E46144608
:10425000E2B231462846FEF7C4FB70BD002070472D
:10426000044800690349496948400249496A48408D
:10427000704700004000F81F002070471749096987
:10428000164A526A8918090EC17114490969134AFC
:10429000526A89180902090E81711049098A0F4A68
:1042A000928C89180904090E41710C49097C0B4A4A
:1042B000928C8918017109494969090EC170074931
:1042C00049690902090E81700449898A0904090EA5
:1042D00041700249097D0170704700004000F81FDD
:1042E00070B504460D4600210448FEF705FF206026
:1042F00001210248FEF700FF286070BD540700202E
:1043000070B504460D46224600210448FEF7FCFE27
:104310002A4601210148FEF7F7FE70BD5407002030
:10432000F0B587B0064602A901A800F00FF80446D0
:104330000D462906200A08430090E7B2384600F0EF
:104340007FF93080009807B0F0BD0000FEB504464C
:104350000D4600BF002229462748FEF75DFF0022D8
:1043600029462548FEF758FF002221462248FEF73D
:1043700025FFE07821494843C01C8608E078C11732
:10438000890F091889108900411A01D11C4900E0E0
:104390001C490F466178491E3D225143481CC10FFC
:1043A000091849106278521E52003B46D3409A07C2
:1043B000920F891A8E19A078401E8619124846431A
:1043C000A97868783C22504309182878E122120124
:1043D0005043081886190021320E09021143330296
:1043E000FF226868101A00221818514101910090AC
:1043F0000199009803B0F0BD54070020B5050000F6
:1044000050554400A0AA9900805101000320704734
:1044100001480068704700003807002010B586B0DA
:1044200001A96846FFF792FF044602480068201A77
:1044300006B010BD3807002010B586B001A9684647
:10444000FFF784FF0446204606B010BD10B500F00B
:1044500009F800F011F810BD10B50446204600F030
:1044600019F810BD10B5FF2101310248FEF754FEC6
:1044700010BD00005407002010B50549084614304F
:10448000FFF764FF0249091F08600846006810BD75
:104490003C070020F0B589B0044600200890079042
:1044A0000026002700251422544902A8FBF7ABFE82
:1044B0005248001F8069019000F0ACF8FF2103987A
:1044C000081A80B20890E1B20898081880B20890E3
:1044D000240A6846857903E04948241A681C85B295
:1044E00047488442F8D26846077A04E0E120000198
:1044F000241A781C87B2E12000018442F6D2684673
:10450000467A02E03C3C701C86B23C2CFAD26846EB
:10451000807A001980B2079008E00898FF380138C7
:1045200080B208900798401C80B207900898FF2836
:10453000F3DC05E007983C3880B20790701C86B227
:1045400007983C28F6D204E030463C3886B2781C06
:1045500087B23C2EF8D204E03846183887B2681C7F
:1045600085B2182FF8D26946C879C117890F091882
:1045700089108900411A10D168464079401E2149AE
:10458000085CA84219DA68464079401E0A46115C68
:104590002846FBF7B7FD8DB20FE068464079401E14
:1045A0001949085CA84208DA68464079401E0A4664
:1045B000115C2846FBF7A6FD8DB2FF210898081A6A
:1045C000124948600F2000068861079888704E7075
:1045D0000F700846203005706846C07AC870002009
:1045E000C8614861FF20013048620020C86008614E
:1045F00000220748FEF7C6FE09B0F0BD3C070020C8
:1046000080510100768005106A8005101007002097
:104610005407002010B5FF2101310748FEF77CFD4B
:1046200005480068C06880210840044908430249E1
:104630000968C86010BD0000540700207FFEFFFF1E
:1046400001460A0AC9B27D20C00050437D23DB0029
:104650004B431B0AC018704770B5064630462021F0
:1046600010F039FF04467D220023FBF75FFD70BD8B
:1046700001B582B00020C043012301AA02A9009025
:104680000248FFF70FFA684680880EBD200600201A
:1046900070B505460C4600262E48C068E030007C08
:1046A000022802D02C49486B804700F035FF0028D3
:1046B00006D0022000F04CFF002000F022FF01266F
:1046C0002448C068E030007C012815D100F02AFFA2
:1046D000002806D0002000F03EFF002000F02FFF51
:1046E000012600F01DFF002806D0002000F031FF59
:1046F000002000F01FFF0126002E27D11548007A68
:1047000000280BD113488038007F012802D11148BE
:104710003C384570284601F03BF917E00D488038D9
:10472000007F012802D10B483C384470204601F03C
:104730002FF90848C068E030007C022806D0054800
:10474000407A2021884320300249487210F0BAFC98
:1047500070BD000000110020888905107047704767
:10476000704701688969022211404908002902D076
:1047700000210268916201688969C907C90F012295
:1047800051405140002904D10168896911430268F0
:104790009161704770B504460D46164620688069E1
:1047A00010210840000900283FD018E0681C0028AC
:1047B00015D0FEF71DF9801BA84201D8002D0ED19F
:1047C000606C202108436064412001550021422093
:1047D000015500BF4020015500BF012070BD206879
:1047E00080692021084040090028DFD0102021687E
:1047F000C86120202168C8612046FFF7B2FF206809
:1048000040680B49084021684860606C04210843F7
:10481000606420214120015500214220015500BF44
:104820004020015500BF0120D8E70020D6E7000056
:1048300000E800FEFFB581B0044615461E460A9FFB
:104840001B48F2B2002300902046029900F072F853
:10485000394620460B9A00F0E2F8002802D00120E9
:1048600005B0F0BD012E03D1E8B22168886211E0E5
:10487000FF20000228400012216888623946204645
:104880000B9A00F0CCF8002801D00120E8E7E8B24C
:10489000216888620B983B46002240210090204608
:1048A00000F064F8002801D00120D9E70020D7E704
:1048B00000200080FFB581B0044615461E460A9FC1
:1048C0001B48F2B2C30200902046029900F032F871
:1048D000394620460B9A00F0A2F8002802D00120A9
:1048E00005B0F0BD012E03D1E8B22168886211E065
:1048F000FF200002284000122168886239462046C5
:104900000B9A00F08CF8002801D00120E8E7E8B20B
:10491000216888620B983B46002280210090204647
:1049200000F024F8002801D00120D9E70020D7E7C3
:1049300000200080F0B504686568059C640D0126C0
:10494000B6023440084E26432C46B4438D05AD0DC7
:104950001604FF273F043E4035431D43059E354363
:104960002C4305686C60F0BDFF63FF03F8B5044697
:104970000E4617461D4619E0681C002816D0FEF7A3
:1049800037F80699401AA84201D8002D0ED1606C64
:104990002021084360644120015500214220015537
:1049A00000BF4020015500BF0120F8BD206880698C
:1049B0003040B04201D1012000E00020B842DBD0FD
:1049C0000020F2E770B504460D4616461EE032465A
:1049D00029462046FFF7DEFE002801D0012070BDE9
:1049E000FEF706F8801BA84201D8002D0ED1606C9E
:1049F00020210843606441200155002142200155D7
:104A000000BF4020015500BF0120E8E72068806911
:104A10002021084040090028D9D00020DFE770B5E8
:104A200004460D46164621E0324629462046FFF749
:104A3000B1FE002801D0012070BD681C002815D0EF
:104A4000FDF7D6FF801BA84201D8002D0ED1606C67
:104A50002021084360644120015500214220015576
:104A600000BF4020015500BF0120E5E720688069B4
:104A70000221084040080028D6D00020DCE70000D2
:104A800000B589B0082000F069F800200590069074
:104A90001020049004A91148FDF73AFE01200005FA
:104AA0000190012003900020029001A90C48FDF71D
:104AB0009EFD0C4A00210A48FDF78EFD01210848A1
:104AC000FDF754FD0648FDF74BFD02211020FEF7CF
:104AD00005FB1020FEF7F0FA09B000BD00001048F9
:104AE000D0030020DDA0041004490969103181427F
:104AF00002D10249086900E0001D704748140020F7
:104B00000748407A4007C00F002805D10448407A82
:104B1000C007C00F002801D0012070470020FCE72B
:104B20000011002002461346002106E0585C0028D0
:104B300001D000207047481C81B21029F6D3012013
:104B4000F8E70146052904D0082903D00A2903D132
:104B500000BF00BF012070470020FCE708B50549F1
:104B600009690143034A1161114609690140009135
:104B700000BF08BD4000404808B505490969014328
:104B8000034A1161114609690140009100BF08BD47
:104B90004000404808B5054989690143034A9161CD
:104BA000114689690140009100BF08BD400040489E
:104BB00001218907C8617047014601208007C0694B
:104BC0000840884201D1012070470020FCE70328FB
:104BD0000BD10122920712690A4301239B071A6134
:104BE0001A4652698A435A617047012809D18207DF
:104BF00012698A4383071A61820752690A435A611C
:104C0000F2E7022809D1420712698A4343071A6171
:104C1000420752698A435A61E6E7042809D102072C
:104C200012698A4303071A61020752698A435A616B
:104C3000DAE7052808D1820712698A4383071A61D7
:104C4000820752690A435A6100BFCDE742683023A8
:104C50009A430A4342607047024949680143014A46
:104C6000516070470000504803498968E022914331
:104C70000143014A91607047000040480349096AB6
:104C8000062291430143014A1162704740004048A7
:104C9000012080070068F0210840000970470000EB
:104CA00010B504461020FEF7F5F90EF013F8204673
:104CB00012F0ECFF09480DF0A1FE0949094800F087
:104CC0004BF800F0B7F905480DF098FE1020FEF7FC
:104CD000D3F91020FEF7F0F910BD0000FFFF00002F
:104CE000CA030020A403002010B50548007801285D
:104CF00004D100200249087002F05AFD10BD0000E6
:104D0000C803002010B5044607A0015D07A010F0FD
:104D1000A7FB00200C4908710220487100210A48B5
:104D200000F038FA10BD0000414243007377697407
:104D3000636820746F20636C617373202563206443
:104D40006F6E650A0D0000009C03002010B5002066
:104D500000F09EF910BD000030B58DB004460D4640
:104D6000834805608348046083A010F079FB87487E
:104D7000C07986498979854A5279844B1B79019398
:104D80000292039104908148C07800907F48837814
:104D9000427801787EA010F063FB8A48C079894987
:104DA0008979884A5279874B1B7901930292039142
:104DB00004908448C07800908248837842780178D3
:104DC00081A010F04DFB8D48C17B827B407B8B4BDB
:104DD0001B7B09930B920C910A908848C17A827AC6
:104DE000407A864B1B7A0593079208910690834878
:104DF000C07982498A794979804B1B790193039262
:104E0000029104907D48C07800907C488378427875
:104E100001787B4810F024FB7A487B4908607B4886
:104E200048607B4888607B48C860524800680068DA
:104E3000794908604F480068406848604D480068FC
:104E4000006AC86011F048FE030010F05CFB0A061F
:104E50000C12181E242A30363C4200226E496A4841
:104E600001F0A8FA39E001226B49674801F0A2FA83
:104E700033E002226849644801F09CFA2DE00322E5
:104E80006549614801F096FA27E0042262495E48CC
:104E900001F090FA21E005225F495B4801F08AFAAF
:104EA0001BE006225C49584801F084FA15E007220D
:104EB0005949554801F07EFA0FE0082256495248F8
:104EC00001F078FA09E0092253494F4801F072FADB
:104ED00003E052A010F0C4FA00BF00BF0220534903
:104EE00008702348006800780871084601F0F2FE57
:104EF0001B204E4908701E480068807808710846DB
:104F000001F0E8FE0620494908703C484860084620
:104F100001F0E0FE07204549087045484860084612
:104F200001F0D8FE0020414908700871084601F0E0
:104F3000D1FE11F0D1FD05280BD011F0CDFD0928CF
:104F400007D011F0C9FD032803D011F0C5FD0428D6
:104F500002D1002002F0CEFD2E203449087014202A
:104F60004860084601F0B6FE02F0BEFD0DB030BD4F
:104F70003C04002040040020416374697661746938
:104F80006F6E3A204F5441410A0000000C0400208B
:104F90004465764575693D20253032582D253032DF
:104FA000582D253032582D253032582D2530325885
:104FB0002D253032582D253032582D253032580AC3
:104FC0000D000000140400204170704575693D20FB
:104FD000253032582D253032582D253032582D2588
:104FE0003032582D253032582D253032582D25306D
:104FF00032582D253032580A0D0000001C040020C4
:10500000608B05106D7F041038080020997F041014
:10501000BD800410FD80041048080020496E7661B0
:105020006C696420524547494F4E0A0058080020D9
:105030002C0400201FB50020694608700848019024
:10504000084902910848006841786846017307489A
:1050500001A90EC90EC0684602F092F91FBD0000FA
:105060000C040020140400203C0400202C08002024
:1050700000B589B001216846017101A801F034FD35
:105080006846007A002801D109B000BD0120FBE785
:1050900070B588B00446002600216846017001F012
:1050A00023FD68460579A54232D0002C04D0012C9E
:1050B00016D0022C2AD114E00020694608716846F7
:1050C00001F008FE002805D113480068816900201E
:1050D000884704E011A010F0C3F90026F64316E05B
:1050E00015E0002D01D00026F64302206946087124
:1050F000684601F0EFFD002805D107480068816986
:105100000220884701E00026F64300E000BF00BF10
:10511000304608B070BD0000400400200A455252DD
:105120004F520A0010B50446607902281FD00328A8
:1051300002D063281DD11BE02079012816D12068F8
:105140000078002804D0012806D002280CD107E0FE
:105150000020FFF79DFF08E00120FFF799FF04E022
:105160000220FFF795FF00E000BF00BF02E001E072
:1051700000E000BF00BF10BD10B500200449087159
:10518000022048710021024800F004F810BD000020
:105190009C03002030B585B004460D4611F0A2FCFA
:1051A000002802D0002005B030BD2079694602F009
:1051B0002FFB00280CD000206946087100210391C4
:1051C00001A8818118480068417801A8817322E014
:1051D000002D0FD10021684601716179017221799A
:1051E00001A88181216803910F480068417801A8D6
:1051F000817310E0012168460171617901722179A2
:1052000001A88181216803910821C17306480068C3
:10521000417801A8817301A801F060FB002800D14A
:10522000C1E70120BFE700003C04002070470000F8
:1052300010B500240122FF212D3116480FF042FA4B
:1052400001200004144989680322D20391430143D9
:10525000114A916000BF00BF104600680421084356
:105260001146086000BF05E00FF04AFA002801D09F
:10527000032407E000BF0848006808210840C00870
:105280000028F1D000BF0022114610460FF01AFA94
:10529000204610BD0024F400000040481FB53A210C
:1052A0006846017310214173FF20F530012103AAE4
:1052B0000B460092019102901022BA210948FDF795
:1052C0004DFDFF21F531012203A801301346019263
:1052D000029100901122BA210248FDF73FFD10F023
:1052E00093FF1FBDC807002030B5044620468C42FE
:1052F00001DD254600E00D46284630BD30B50446A8
:1053000020468C4201DD254600E00D46284630BD92
:1053100030B5044620468C4201DD254600E00D46AE
:10532000284630BD30B5044620468C4201DD254676
:1053300000E00D46284630BD30B5044620468C427C
:1053400001DD254600E00D46284630BD30B5044657
:1053500020468C4201DD254600E00D46284630BD42
:1053600030B5044620468C4201DD254600E00D465E
:10537000284630BD30B5044620468C4201DD254626
:1053800000E00D46284630BDFFB581B004460D460D
:1053900016462746AC4201DD204600E02846074677
:1053A000042E06D1022C01DD204600E00220074633
:1053B0000CE004220021049808F035FD322805DABB
:1053C000052C01DD204600E005200746384605B0E3
:1053D000F0BD0246002A02D1002900D170471068B2
:1053E000002800D111605068002801D05068016089
:1053F0000020086051600120F0E703460A46002BB8
:1054000002D1002A00D1704719688A4207D000E013
:105410000968002904D008689042F9D100E0002111
:105420000846F0E70146002900D1704700200860D7
:1054300048600120F9E770B505460C46002D02D101
:10544000002C00D170BD21462846FFF7D6FF064646
:105450002868A04201D1206828606868A04200D175
:105460006E60002E01D02068306000202060012096
:10547000E8E7F8B504460D4616461F46A078002812
:1054800006D13B46324629462046FBF7EBFDF8BDE8
:105490000020FCE710B50B2000F01EFA002813D006
:1054A0000A48407AC007C00F00280DD10748407A4B
:1054B0004007C00F002807D00548806C02218843B0
:1054C00003498864012010BD0020FCE70011002082
:1054D000800F00200848806C8021084080280AD175
:1054E0000548806C8843044988640846806C022122
:1054F0008843014988647047800F002001460020DE
:105500007047704770477047014600200860704739
:105510007047704700207047002070470020704798
:105520000020704700207047014600207047014668
:10553000022070477047024600207047704770474E
:1055400070470146012070477047024600207047AF
:105550007047704770477047704701460220704798
:10556000F8B506460F461546002F01D10120F8BDBB
:1055700002F0E6FC0446002C04D112A00FF070FFEC
:105580000220F4E721461248FFF723FF002801D14B
:105590000520ECE72671A560AAB23946601D11F01E
:1055A000FCFA3046FFF7CDFA207309488030816F4E
:1055B000681C091806488030816702F0CDFE002083
:1055C000D5E700006E6F206D656D6F72790A00007F
:1055D000341300200146FC20086001487047000099
:1055E000341300200146002901D1012070470248F0
:1055F000806F08600020F9E7B413002010B504465E
:10560000FC220021044811F0E2FA0348FFF70AFFE8
:1056100002480460002010BD34130020340500202F
:1056200010B50446002C01D1012010BD21460D48C3
:10563000FFF701FF002801D10320F6E70948803079
:10564000816FA068401C091A064880308167204697
:10565000FCF7ACFC002801D10520E6E702F07CFE57
:105660000020E2E73413002070B50948046809E01F
:10567000207B002805D125682046FFF7D1FF2C4666
:1056800000E02468002CF3D102F066FE002070BD1B
:105690003413002070B50F48046814E02668207B9E
:1056A00001280FD100250AE020790B49495D884285
:1056B00003D12046FFF7B4FF03E0681CC5B2032DF9
:1056C000F2D300BF3446002CE8D102F045FE0020A2
:1056D00070BD000034130020BA83051010B50446D5
:1056E000002C06D0FC222146034811F056FA002077
:1056F00010BD0120FCE7000034130020F7B5074679
:105700001646002E02D00198002801D10120FEBDCE
:105710000F480468002515E0791BA068401C8142F1
:105720000ED322792846691CCDB2325421898AB21F
:105730007019611D11F031FA207A4019C5B200E0EC
:1057400002E02468002CE7D100BF0020DFE7000062
:10575000341300200246002A01D101207047084876
:1057600001680020107006E0087B012802D110704B
:105770000020F3E709680029F6D10020EEE70000D9
:105780003413002010B5044612480069007D052836
:1057900001DB002010BD20780E4989680870607810
:1057A0000C4989684870E0780A498968C870002007
:1057B00008498968887007480069007D401C0549D0
:1057C0000969087503498868FFF78EF901498860FF
:1057D0000120DFE74814002001480069007D704780
:1057E0004814002001461620086001487047000058
:1057F0003014002070B50546002409480069007D7A
:1058000000280ADD0648826841682846FCF70CFD3E
:105810000446002C01D0607870BD0120FCE7000038
:1058200048140020F8B5044619480069077D002592
:1058300000262AE016484068007820701448406826
:1058400040786070124840688578012D05D1104875
:1058500000688168204688470EE00D48406801785E
:10586000684601700A4840684178684641700848B7
:105870004068C1786846C17000F04AF8002D02D136
:105880006846FFF77FFF701CC6B2BE42D2DBF8BD90
:105890004814002070B504460D460D4804600D48BC
:1058A0000B49086100200969087509480069084921
:1058B000486008460069886014220869FF2111F0D9
:1058C00086F901200249096948750148C56070BD23
:1058D000481400203014002010B5044605488268A2
:1058E00041682046FCF7A0FC002801D0012010BD33
:1058F0000020FCE74814002004480069007D0528CA
:1059000001DB012070470020FCE700004814002064
:1059100010B50A480069007D002800D110BD074875
:105920000069007D401E05490969087503494868FA
:10593000FFF7DAF8014948600120EFE7481400203A
:1059400010B50446002C06D016222146034811F05B
:1059500024F9012010BD0020FCE7000030140020D5
:1059600070B505460E46002408480069007D0028F1
:105970000BDD0648826841683046FCF755FC04465A
:10598000002C02D065700120A07070BD481400206A
:1059900070B505460C484468006945750A480069B9
:1059A000007D00280EDD00BF6570E078002801D181
:1059B0000120A0702046FFF797F80446024880684F
:1059C000A042F1D170BD000048140020F0B585B0B0
:1059D0000446092C02D00B2005B0F0BD0020009039
:1059E0000190029003900C487F2322466946456847
:1059F0002F7838466F783F023843AF783F043843FA
:105A0000EE78360630430DF0CAFE002801D00F2094
:105A1000E2E70020E0E700005C140020F0B585B06C
:105A20000446002C04D11A4840688078002806D02B
:105A3000012C07D1164840688078012802D10B203C
:105A400005B0F0BD00200090019002900390104836
:105A500040688078012802D12020694608700C48EF
:105A600009232246694645682F7838466F783F02F9
:105A70003843AF783F043843EE78360630430DF0B4
:105A80008EFE002801D00F20DAE70020D8E70000C2
:105A90005C140020FFB583B00E4615461C4600205E
:105AA0000290002713200190002C02D10A2007B099
:105AB000F0BD02A90398FCF73BFC01900198002877
:105AC00001D00198F3E70298401C002801D125601D
:105AD00016E0029880B22F1A002F03DD0298C01939
